:100000000C943E000C9450000C9450000C94500042
:100010000C9450000C9450000C9450000C94500020
:100020000C9450000C9450000C9450000C94500010
:100030000C9439020C9450000C9450000C94500015
:100040000C94D6060C9450000C9450000C94500064
:100050000C9450000C9450000C9450000C945000E0
:100060000C94F5010C9450000C9450000C9450002A
:100070000C9450000C9450000C94500011241FBE9E
:10008000CFEFD8E0DEBFCDBF12E0A0E0B1E001C00D
:100090001D92AB32B107E1F70E9452000C94270E7B
:1000A0000C940000DF93CF93CDB7DEB70E945208C7
:1000B0000E94AA060E9434060E9430022BE43BE014
:1000C00081E0B9010E94820A26E93BE080E0B901A3
:1000D0000E94820A2BEE3BE080E0B9010E94820A76
:1000E0002FEF3BE080E0B9010E94820A0E94A90341
:1000F000809128028F7E8093280280912802886058
:100100008093280288E080932F0180912D019091A7
:100110002E019093370180933601809136019091A2
:10012000370122E08C31920738F088E391E0909318
:1001300037018093360109C08091360190913701D3
:100140000C969093370180933601809136019091FF
:100150003701FC01808180932902809129028074FB
:10016000882309F454C0809129028078882309F0FB
:100170004EC08091290287708093300190913001A8
:1001800080912F01981708F042C080912902887051
:100190008823C1F4CF93DF930E9439070E9434076C
:1001A0006091290268728FB7F8947C91777D762BE5
:1001B0007C938FBFDF91CF91809128028870882334
:1001C00009F496CF809129028071882329F08091CB
:1001D000290280728823D9F08091290288708823AF
:1001E000B1F08091280280618093280280913601CD
:1001F00090913701909334018093330180912902CB
:10020000877080932F0180912F01882361F02091C6
:1002100036013091370180912D0190912E012817E0
:10022000390709F07ACF809128028071882309F478
:100230005FCF80912802877F8093280280913301CD
:10024000909134019093370180933601809136016B
:100250009091370190932E0180932D01809136016A
:1002600090913701FC0180818093290280912902BD
:100270008074882309F43CCF8091290280788823F8
:1002800009F488CF35CFDF93CF9300D000D00F9201
:10029000CDB7DEB79D838C8319821A821B828C8135
:1002A0009D8120E13EE0B9010E94F10D9B01C90151
:1002B0008B838B81482F50E020EF31EF429FC001AC
:1002C000439F900D529F900D11249C018C819D8124
:1002D000820F931F2CE330E0B9010E94F10D9B01C6
:1002E000C9018A839B8180EF989F902D11242A81D8
:1002F00084EC289F802D1124980F8C81890F89838D
:1003000089819AE0692F0E94E50D8093090180910F
:100310000901880F982F990F990F890F819599815D
:10032000890F809308018A819AE0692F0E94E50D68
:1003300080930B0180910B01880F982F990F990FD3
:10034000890F81959A81890F80930A018B819AE0A8
:10035000692F0E94E50D80930D0180910D01880F9A
:10036000982F990F990F890F81959B81890F809301
:100370000C0188E091E00F900F900F900F900F907C
:10038000CF91DF9108950F93DF93CF9300D000D0EA
:1003900000D0CDB7DEB78A836B834C832D830E8369
:1003A0008C8189838B81882319F48D81898305C091
:1003B0008B81853011F48E8189838B81282F2F5F6B
:1003C00091E08C81882309F090E08A81622F492F87
:1003D00029810E94730626960FB6F894DEBF0FBEE1
:1003E000CDBFCF91DF910F9108951F920F920FB65D
:1003F0000F9211242F933F934F935F936F937F93AB
:100400008F939F93AF93BF93EF93FF93DF93CF931C
:10041000CDB7DEB70E941104282F30E080910E0185
:1004200090910F01820F931F90930F0180930E0103
:10043000809110018F5F80931001CF91DF91FF9128
:10044000EF91BF91AF919F918F917F916F915F914C
:100450004F913F912F910F900FBE0F901F901895C5
:10046000DF93CF93CDB7DEB70E94B403CF91DF9176
:1004700008951F920F920FB60F9211242F933F935E
:100480008F939F93AF93BF93EF93FF93DF93CF939C
:10049000CDB7DEB78FE690E02FE630E0F90120819E
:1004A0002F7DFC012083809111018C33B9F4809160
:1004B000130190911401A0911501B09116010196BC
:1004C000A11DB11D8093130190931401A0931501F8
:1004D000B093160110921101109212018091110136
:1004E0008F5F80931101CF91DF91FF91EF91BF91C9
:1004F000AF919F918F913F912F910F900FBE0F90D1
:100500001F9018950F931F93DF93CF93CDB7DEB74E
:1005100068970FB6F894DEBF0FBECDBF8FE790E0AF
:100520002FE730E0F90120812360FC01208380E582
:1005300090E020E530E0F90120812078FC01208363
:1005400080E590E020E530E0F90120812064FC01A5
:10055000208380E090E0ACE8B2E489839A83AB83A7
:10056000BC8329813A814B815C81CA01B9010E9417
:100570000D0CDC01CB018D839E83AF83B88711E026
:100580006D817E818F81988520E030E040E85FE3D7
:100590000E94710C88230CF010E0112319F081E007
:1005A0008987A3C011E06D817E818F81988520E0CD
:1005B00030E04FE753E40E947E0D18160CF010E077
:1005C000112309F489C069817A818B819C8120E0A3
:1005D00030E04AE754E40E94750CDC01CB018A87C5
:1005E0009B87AC87BD876A857B858C859D8520E050
:1005F00030E84BEB54E40E94820DDC01CB018E8786
:100600009F87A88BB98B11E06E857F858889998932
:1006100020E030E040E85FE30E94710C88230CF09A
:1006200010E0112329F081E090E09B8B8A8B46C07B
:1006300011E06E857F858889998920E03FEF4FE73B
:1006400057E40E947E0D18160CF010E0112361F1A2
:100650006A857B858C859D8520E030E040E251E411
:100660000E94820DDC01CB01BC01CD010E94DD0C9A
:10067000DC01CB019B8B8A8B12C086E990E09D8BBD
:100680008C8B8C899D898C01C8010197F1F78C01B5
:100690001D8B0C8B8A899B8901979B8B8A8B8A89FE
:1006A0009B89009751F728C06E857F858889998935
:1006B0000E94DD0CDC01CB019B8B8A8B8A899B8994
:1006C0009F8B8E8B8E899F898C01F8013197F1F772
:1006D0008F011F8B0E8B10C06D817E818F8198855D
:1006E0000E94DD0CDC01CB0189878985888F888D8C
:1006F000182F1A95F1F7188F80E590E020E530E08B
:10070000F90120812460FC01208368960FB6F894DB
:10071000DEBF0FBECDBFCF91DF911F910F91089526
:10072000DF93CF93CDB7DEB780E590E020E530E0F2
:10073000F9012081277FFC01208380E590E020E5FE
:1007400030E0F90120812068FC012083CF91DF9106
:100750000895DF93CF93CDB7DEB70E9482020E9447
:100760001007CF91DF910895DF93CF93CDB7DEB718
:100770008CE790E02CE730E0F90120812666FC014F
:1007800020838AE790E02AE730E0F90120812660A3
:10079000FC0120838EE790E02EE730E0F901208114
:1007A0002064FC0120838AE790E02AE730E0F90129
:1007B00020812860FC0120830E94F103CF91DF910A
:1007C0000895DF93CF93CDB7DEB78AE790E02AE7AD
:1007D00030E0F90120812064FC012083CF91DF917A
:1007E0000895DF93CF93CDB7DEB78AE790E02AE78D
:1007F00030E0F90120812068FC012083CF91DF9156
:100800000895DF93CF93CDB7DEB78AE790E02AE76C
:1008100030E0F90120812F77FC012083CF91DF9117
:100820000895DF93CF93CDB7DEB789E790E0FC0161
:100830008081CF91DF910895DF93CF9300D00F9205
:10084000CDB7DEB78A836B8319828A81882F90E0C7
:100850008430910599F18530910584F481309105BA
:1008600021F1823091051CF40097E1F039C082300B
:100870009105F1F083309105F1F032C08730910598
:1008800031F1883091053CF485309105D1F0863006
:100890009105D1F025C088309105E1F089309105AE
:1008A000E1F01EC08FE389831BC086E0898318C0F6
:1008B0008BE5898315C08FE4898312C086E689831E
:1008C0000FC08DE689830CC08DE7898309C087E05E
:1008D000898306C08FE7898303C08FE68983000080
:1008E0008981882F90E0880F991F982F8B81892B01
:1008F000809317010F900F900F90CF91DF91089583
:10090000DF93CF93CDB7DEB785E290E025E230E00C
:10091000F90120812F7DFC0120838BE290E02BE206
:1009200030E0F90120812374FC012083CF91DF9115
:1009300008950F931F93DF93CF93CDB7DEB76997D9
:100940000FB6F894DEBF0FBECDBF898F0E94800422
:1009500082E290E022E230E0F9012081207EFC0179
:10096000208385E290E025E230E0F90120812C7EB1
:10097000FC01208380E090E0A0EAB0E489839A83C0
:10098000AB83BC8329813A814B815C81CA01B90167
:100990000E940D0CDC01CB018D839E83AF83B88751
:1009A00011E06D817E818F81988520E030E040E804
:1009B0005FE30E94710C88230CF010E0112319F002
:1009C00081E08987A3C011E06D817E818F81988548
:1009D00020E030E04FE753E40E947E0D18160CF043
:1009E00010E0112309F489C069817A818B819C818F
:1009F00020E030E04AE754E40E94750CDC01CB01B2
:100A00008A879B87AC87BD876A857B858C859D851A
:100A100020E030E84BEB54E40E94820DDC01CB0176
:100A20008E879F87A88BB98B11E06E857F8588891B
:100A3000998920E030E040E85FE30E94710C882350
:100A40000CF010E0112329F081E090E09B8B8A8B61
:100A500046C011E06E857F858889998920E03FEF47
:100A60004FE757E40E947E0D18160CF010E011239A
:100A700061F16A857B858C859D8520E030E040E2D0
:100A800051E40E94820DDC01CB01BC01CD010E942A
:100A9000DD0CDC01CB019B8B8A8B12C086E990E0D8
:100AA0009D8B8C8B8C899D898C01C8010197F1F7F6
:100AB0008C011D8B0C8B8A899B8901979B8B8A8B60
:100AC0008A899B89009751F728C06E857F85888920
:100AD00099890E94DD0CDC01CB019B8B8A8B8A8972
:100AE0009B899F8B8E8B8E899F898C01F801319712
:100AF000F1F78F011F8B0E8B10C06D817E818F816E
:100B000098850E94DD0CDC01CB0189878985888F5F
:100B1000888D182F1A95F1F7188F898D863009F472
:100B200042C0809117018823F1F182E290E022E235
:100B300030E0F901308120911701207C422F469549
:100B400046954695209117012770242B232BFC01F5
:100B5000208385E290E025E230E0F9012081422FF8
:100B6000209117012295269527702170522F2091F0
:100B7000170122952F702170222F30E0220F331F92
:100B8000522B209117012695269526952170222F0C
:100B900030E022953295307F3227207F3227252B77
:100BA000242BFC012083898D882F90E083309105D0
:100BB00041F1843091053CF48130910571F082302F
:100BC0009105A9F046C08530910579F185309105F0
:100BD00014F18630910599F13CC085E290E025E260
:100BE00030E0F90120812062FC01208332C08BE2D9
:100BF00090E02BE230E0F90120812460FC012083A9
:100C000028C08BE290E02BE230E0F90120812860DF
:100C1000FC0120831EC08BE290E02BE230E0F90162
:100C200020812061FC01208314C08BE290E02BE244
:100C300030E0F90120812062FC0120830AC08BE2B0
:100C400090E02BE230E0F90120812068FC01208354
:100C5000000069960FB6F894DEBF0FBECDBFCF91EE
:100C6000DF911F910F910895DF93CF93CDB7DEB73A
:100C700082E290E022E230E0F9012081207EFC0156
:100C8000208385E290E025E230E0F90120812C7E8E
:100C9000FC01208381E290E021E230E0F901208133
:100CA0002F61FC01208384E290E024E230E0F9012E
:100CB00020812361FC01208384E290E024E230E083
:100CC000F90120812062FC0120838AE290E02AE27F
:100CD00030E0F90120812C6FFC0120830E94800408
:100CE000CF91DF910895DF93CF9300D000D0CDB79F
:100CF000DEB789836A834B832C838BE290E02BE2FF
:100D000030E0F90120812F7BFC0120838BE290E011
:100D10002BE230E0F9012081422F2B81222F30E09D
:100D20000024369527950794369527950794322FFA
:100D3000202D242BFC01208389816C810E941C04BE
:100D40008A810E9499040F900F900F900F90CF917D
:100D5000DF910895DF93CF93CDB7DEB784E490E0C1
:100D600024E430E0F90120812260FC01208385E445
:100D700090E025E430E0F90120812260FC0120832D
:100D80008EE690E022E0FC01208387E490E02CE7EF
:100D9000FC0120838FE590E02FE530E0F901208110
:100DA0002068FC012083CF91DF9108951F920F925C
:100DB0000FB60F9211242F933F934F935F936F932E
:100DC0007F938F939F93AF93BF93EF93FF93DF93A3
:100DD000CF93CDB7DEB70E948708CF91DF91FF9107
:100DE000EF91BF91AF919F918F917F916F915F91A3
:100DF0004F913F912F910F900FBE0F901F9018951C
:100E0000DF93CF93CDB7DEB781E890E021E830E003
:100E1000F90120812160FC012083CF91DF910895A9
:100E2000DF93CF93CDB7DEB70E94000781E890E053
:100E300021E830E0F90120812068FC01208381E86D
:100E400090E021E830E0F90120812064FC0120835A
:100E50008FE690E02FE630E0F90120812062FC016E
:100E60002083CF91DF910895A0913601B091370191
:100E700008956DB7609331016EB7609332010E949F
:100E800034076D91609329026D917D91CD91DD9133
:100E9000D7FF02C0CDB7DEB79FB7F894CDBFDEBF96
:100EA0009FBF6F937F936D91762F662341F0899159
:100EB0008D9189937A95E1F76395C61BD1090895C1
:100EC0000E9434076D916F917F917D936D93CD93C7
:100ED000DD93809129028860809329020C94700729
:100EE0001C92709131017C1B725041F0753030F4CE
:100EF0007D93699169916D937A95E1F760913101E4
:100F0000709132018FB7F8946DBF7EBF8FBF089587
:100F100080E00C948E0781E00C948E07609129028A
:100F2000677F64FF6F7D80FD60626093290280911E
:100F300028028E7F809328020E9434076D916F9162
:100F40007F917D936D93CD93DD937F936F93089500
:100F5000DF93CF930F92CDB7DEB78FE590E0FC0122
:100F600080818983F89489810F90CF91DF910895D2
:100F70006FB760933501F8940895DF93CF930F9284
:100F8000CDB7DEB789838FE590E02981FC0120830E
:100F90000F90CF91DF910895609135016FBF089553
:100FA00089830E943407609128026F7D6093280234
:100FB00070912902882379F073FF0BC07F7E0E9415
:100FC000B8076C916F7E6C930E94CC0770932902D6
:100FD0000895786001C0777F74FF75FF05C0606277
:100FE000609328027860F2CF70932902AB5FBF4F05
:100FF0006F917F910C947007DF93CF9300D0CDB7A2
:10100000DEB79A8389830E94B807809129028F7D79
:10101000809329028091360190913701FC01208153
:101020002F7EFC0120830E94CC0789819A81009742
:10103000A1F189819A81809590959A83898389818C
:101040009A8101969A838983809136019091370124
:1010500029813A81FC01338722870E94B807809159
:10106000360190913701FC0120812860FC0120832A
:101070008091360190913701FC0120812061FC01B3
:1010800020830E94CC0780912902806180932902ED
:10109000809129028860809329020F900F90CF9150
:1010A000DF910895DF93CF93CDB7DEB788E292E06A
:1010B000FC0110828CE192E090932E0180932D012F
:1010C00088E391E0909337018093360184E1809327
:1010D00030018091360190913701FC0120812F7BF6
:1010E000FC01208380913601909137010C969093FA
:1010F0003701809336018091300181508093300117
:1011000080913001882329F7CF91DF910895DF93F3
:10111000CF93CDB7DEB78091380180718823A1F0DD
:1011200080914201909143010196909343018093F5
:1011300042018091420190914301009729F48091EE
:1011400038018F7E8093380180914401807188231B
:10115000A1F080914E0190914F01019690934F0123
:1011600080934E0180914E0190914F01009729F498
:10117000809144018F7E8093440180915001807161
:101180008823A1F080915A0190915B010196909380
:101190005B0180935A0180915A0190915B01009705
:1011A00029F4809150018F7E8093500180915C01E1
:1011B00080718823A1F0809166019091670101966A
:1011C0009093670180936601809166019091670119
:1011D000009729F480915C018F7E80935C0180915F
:1011E000680180718823A1F0809172019091730150
:1011F0000196909373018093720180917201909196
:101200007301009729F4809168018F7E80936801B3
:101210008091740180718823A1F080917E0190916A
:101220007F01019690937F0180937E0180917E01E2
:1012300090917F01009729F4809174018F7E8093B3
:1012400074018091800180718823A1F080918A01CE
:1012500090918B01019690938B0180938A018091EC
:101260008A0190918B01009729F4809180018F7EF3
:101270008093800180918C0180718823A1F08091FE
:101280009601909197010196909397018093960112
:101290008091960190919701009729F480918C019B
:1012A0008F7E80938C018091980180718823A1F0BA
:1012B0008091A2019091A30101969093A301809344
:1012C000A2018091A2019091A301009729F480913D
:1012D00098018F7E809398018091A401807188236A
:1012E000A1F08091AE019091AF0101969093AF0172
:1012F0008093AE018091AE019091AF01009729F4E7
:101300008091A4018F7E8093A4018091B0018071AF
:101310008823A1F08091BA019091BB01019690932E
:10132000BB018093BA018091BA019091BB010097F3
:1013300029F48091B0018F7E8093B0018091BC012F
:1013400080718823A1F08091C6019091C701019618
:101350009093C7018093C6018091C6019091C70107
:10136000009729F48091BC018F7E8093BC0180910D
:10137000C80180718823A1F08091D2019091D3019E
:1013800001969093D3018093D2018091D2019091E4
:10139000D301009729F48091C8018F7E8093C80102
:1013A0008091D40180718823A1F08091DE01909119
:1013B000DF0101969093DF018093DE018091DE01D1
:1013C0009091DF01009729F48091D4018F7E809362
:1013D000D4018091E00180718823A1F08091EA011D
:1013E0009091EB0101969093EB018093EA0180913B
:1013F000EA019091EB01009729F48091E0018F7E42
:101400008093E0018091EC0180718823A1F08091AC
:10141000F6019091F70101969093F7018093F60100
:101420008091F6019091F701009729F48091EC01E9
:101430008F7E8093EC018091F80180718823A1F068
:10144000809102029091030201969093030280938F
:1014500002028091020290910302009729F4809188
:10146000F8018F7E8093F8018091040280718823B7
:10147000A1F080910E0290910F02019690930F02BD
:1014800080930E0280910E0290910F02009729F432
:10149000809104028F7E80930402809110028071FB
:1014A0008823A1F080911A0290911B0201969093DB
:1014B0001B0280931A0280911A0290911B020097DE
:1014C00029F4809110028F7E8093100280911C027B
:1014D00080718823A1F080912602909127020196C5
:1014E00090932702809326028091260290912702F2
:1014F000009729F480911C028F7E80931C02CF916B
:10150000DF910895DF93CF9300D000D00F92CDB735
:10151000DEB78B837D836C83809128028D7F8093DF
:10152000280288E391E09A838983109230018981AF
:101530009A81FC0180818074882309F03EC0CE012D
:101540000396FC0120812064FC012083CE010396D8
:10155000FC0120812860FC01208389819A812C81F3
:101560003D81FC013283218389819A81FC011386AC
:10157000128689819A812B81FC012083809136011A
:101580009091370129813A812817390729F489E296
:1015900092E02B81FC01208389819A8120E030E850
:1015A000FC013483238389819A81FC011582809117
:1015B00028028D7F8093280215C089819A810C961C
:1015C0009A838983809130018F5F8093300180916D
:1015D0003001843108F4ABCF80912802826080937F
:1015E000280200000F900F900F900F900F90CF9156
:1015F000DF910895DF93CF93CDB7DEB72A970FB66B
:10160000F894DEBF0FBECDBF6F83788789879A8736
:101610001B821C821D821E821A8219822CC08F811D
:101620009885A985BA852AE030E040E050E0BC0109
:10163000CD010E94050E2B833C834D835E839F81E9
:101640008B81880F282F220F220F820F292F281B12
:1016500089819A818B5D9E4FFC0120838B819C81C7
:10166000AD81BE818F839887A987BA8789819A8146
:1016700001969A83898389819A81863091057CF2CB
:1016800085E291E02A960FB6F894DEBF0FBECDBF7B
:10169000CF91DF9108950F93DF93CF93CDB7DEB74E
:1016A0008091130190911401A0911501B091160140
:1016B0000E944301909321018093200120912001F9
:1016C0003091210180911F01882F90E0820F931F9C
:1016D000FC01808190911F01692F40E020E000E033
:1016E0000E94C30180911F018F5F80931F01809131
:1016F0001F01863011F410921F0180912401882F60
:1017000090E02CE030E0A901481B590BCA010E946F
:10171000FC070E9460070E94800480912401882FAA
:1017200090E00E94FC070E946007BACFDF93CF933E
:10173000CDB7DEB7809112018130B1F480911301F1
:1017400090911401A0911501B09116010196A11D6F
:10175000B11D8093130190931401A0931501B093D0
:1017600016011092110103C081E080931201809153
:101770000E0190910F0120911001222F30E0B9014C
:101780000E94F10D9B01C9019093230180932201D6
:101790008091220190912301880F991F9C01220FB3
:1017A000331F220F331F820F931F2FEF30E0B90139
:1017B0000E94F10D9B01C9018093240110920F0139
:1017C00010920E011092100180E797E10E94FC0731
:1017D0000E946007AFCFDF93CF93CDB7DEB78FE620
:1017E00090E02FE630E0F90120812062FC012083A7
:1017F0008AE090E00E94FC070E946007F0CFDF9330
:10180000CF93CDB7DEB70E94E1038CE390E00E9456
:10181000FC070E946007F7CF5058BB27AA270ED0BD
:1018200033C124D130F029D120F031F49F3F11F49D
:101830001EF419C10EF4E095E7FB0FC1E92F35D175
:1018400080F3BA17620773078407950718F071F4DD
:101850009EF54DC10EF4E0950B2EBA2FA02D0B0175
:10186000B90190010C01CA01A0011124FF27591BE5
:1018700099F0593F50F4503E68F11A16F040A22FEB
:10188000232F342F4427585FF3CF4695379527955C
:10189000A795F0405395C9F77EF41F16BA0B620B5B
:1018A000730B840BBAF09150A1F0FF0FBB1F661FA2
:1018B000771F881FC2F70EC0BA0F621F731F841FE5
:1018C00048F4879577956795B795F7959E3F08F00B
:1018D000B3CF9395880F08F09927EE0F97958795CA
:1018E000089597D008F481E008950CD0CDC0C5D0FC
:1018F00040F0BCD030F021F45F3F19F0AEC0511180
:10190000F7C0B1C0D2D098F39923C9F35523B1F3EE
:10191000951B550BBB27AA2762177307840738F05E
:101920009F5F5F4F220F331F441FAA1FA9F333D0BD
:101930000E2E3AF0E0E830D091505040E695001C71
:10194000CAF729D0FE2F27D0660F771F881FBB1F2D
:10195000261737074807AB07B0E809F0BB0B802D07
:10196000BF01FF2793585F4F2AF09E3F510568F053
:1019700074C0BEC05F3FECF3983EDCF3869577956C
:101980006795B795F7959F5FC9F7880F911D969555
:10199000879597F90895E1E0660F771F881FBB1FB1
:1019A000621773078407BA0720F0621B730B840B5E
:1019B000BA0BEE1F88F7E09508957FD088F09F5707
:1019C00090F0B92F9927B751A0F0D1F0660F771F8B
:1019D000881F991F1AF0BA95C9F712C0B13081F06B
:1019E00086D0B1E0089583C0672F782F8827B85F2D
:1019F00039F0B93FCCF3869577956795B395D9F7CC
:101A00003EF490958095709561957F4F8F4F9F4FD5
:101A10000895990F0008550FAA0BE0E8FEEF16167F
:101A20001706E807F907C0F012161306E407F507D2
:101A300098F0621B730B840B950B39F40A2661F046
:101A4000232B242B252B21F408950A2609F4A140E9
:101A5000A6958FEF811D811D089597F99F6780E8F6
:101A600070E060E008959FEF80EC089500240A94F0
:101A70001616170618060906089500240A94121669
:101A80001306140605060895092E0394000C11F49C
:101A9000882352F0BB0F40F4BF2B11F460FF04C049
:101AA0006F5F7F4F8F4F9F4F089557FD9058440FA2
:101AB000551F59F05F3F71F04795880F97FB991FAD
:101AC00061F09F3F79F0879508951216130614066A
:101AD000551FF2CF4695F1DF08C0161617061806F7
:101AE000991FF1CF86957105610508940895E894D2
:101AF000BB2766277727CB0197F908958ADF08F47B
:101B00008FEF08950BD0C0CFB1DF28F0B6DF18F00B
:101B1000952309F0A2CFA7CF1124EACFC6DFA0F307
:101B2000959FD1F3950F50E0551F629FF001729F72
:101B3000BB27F00DB11D639FAA27F00DB11DAA1F91
:101B4000649F6627B00DA11D661F829F2227B00DDE
:101B5000A11D621F739FB00DA11D621F839FA00D69
:101B6000611D221F749F3327A00D611D231F849FB9
:101B7000600D211D822F762F6A2F11249F57504010
:101B80008AF0E1F088234AF0EE0FFF1FBB1F661FAB
:101B9000771F881F91505040A9F79E3F510570F064
:101BA0005CCFA6CF5F3FECF3983EDCF3869577954C
:101BB0006795B795F795E7959F5FC1F7FE2B880F5F
:101BC000911D9695879597F90895991B79E004C022
:101BD000991F961708F0961B881F7A95C9F780956C
:101BE0000895AA1BBB1B51E107C0AA1FBB1FA61764
:101BF000B70710F0A61BB70B881F991F5A95A9F7B6
:101C000080959095BC01CD010895A1E21A2EAA1BE2
:101C1000BB1BFD010DC0AA1FBB1FEE1FFF1FA2179C
:101C2000B307E407F50720F0A21BB30BE40BF50B99
:101C3000661F771F881F991F1A9469F76095709522
:101C4000809590959B01AC01BD01CF010895F8945A
:021C5000FFCFC4
:00000001FF
